:1000000034EF06F0F76A140FF66E000EF7220900BF
:10001000F5501200280C01065432353630004631B6
:100020003A252E31665620252E3166410000463293
:100030003A252E31665620252E3166410000463382
:100040003A252E31665620252E3166410000EA6A97
:100050005C0EE96EEF500DE0020E016E006A002E9C
:10006000FED7012EFBD7970E006E002EFED7EF2E87
:10007000F3D7120063B102D08A9801D08A8893988E
:1000800063B302D08A9A01D08A8A939A63B502D068
:100090008A9C01D08A8C939C63B702D08A9E01D03F
:1000A0008A8E939E00008A86939600D000D08A960E
:1000B00093961200646B9388000E81B8010E64134E
:1000C000938A000E81BA010E006ED890003600505F
:1000D0006413938C000E81BC010E006E0036003656
:1000E000FC0E001600506413938E000E81BE010EAC
:1000F000006E003600360036F80E0016005064130D
:1001000064C001F012009388938A938C938E8A8442
:10011000939400008A8693960000CCDF01C063F0C0
:100120008A96939600008A86939600D0C3DF01C01A
:1001300062F08A9693969398939A939C939E6339D0
:10014000006EF00E001600506211016EAEEF00F06E
:100150009396959093948C909590D5D701C062F02A
:1001600001BEFBD7605302E18C9001D08C8095904A
:1001700000008A94939400008A9693966139626F86
:100180000F0E621762C063F075DF61510F0B626F73
:10019000636F70DF12009398939A939C939E93964B
:1001A000959093948C9095908A9493948A96939634
:1001B0000F0E5C6E4CDF010E356E3550030808E300
:1001C000030E636F57DF050E5C6E41DF352AF5D7EE
:1001D000020E636F4FDF050E5C6E39DF356A3550F6
:1001E00003080EE3036A3550F2CF36F0F29E0ADFC1
:1001F00036BEF28E366E606B616FAADF352AEFD79E
:1002000063EF06F08E0E006E38C001F037C002F0CA
:10021000036A015209E102C001F0026A080E005EA1
:10022000015202E1006A08D0D89001BE04D0023623
:1002300001360006F9D7019E12005B50D8B471D088
:10024000006E5F50D8B46DD0002604E3810E002606
:1002500068E204D07F0E005E64E363E05CC063F09C
:100260006051631B5C8E608F5E506203F4CF65F05B
:100270005D506103F4CF03F0F3CF64F06203F350F9
:100280006527F4506423000E03225E506103F3508F
:100290006527F4506423000E026A032202225C5098
:1002A0006203F3506427F4500322000E02225C50D4
:1002B0006103F3500326F4500222000E016A01226A
:1002C0005E506003F3506427F4500322000E0222B4
:1002D00001225D506003F3500326F4500222000E09
:1002E00001225C506003F3500226F4500122002AE0
:1002F00001BE05D064370336023601360006000E13
:1003000064AF0AD0032A02220122015005E1025003
:1003100003E1035001E1002A63BF018E63AF019E38
:1003200004D0006A016A026A036A12008E0E006E2F
:100330003550005E36C002F037C001F0028E005228
:1003400009E0D890025202E1015204E00232013287
:10035000002EF7D736AE05D0011E021E012AD8B4F2
:10036000022A9AEF06F0016A026A006A036A3A50AA
:1003700002E1395018E0100E3B6ED890373638360F
:10038000003603363A50035C02E13950005C07E363
:100390003950005ED8A003063A50035ED88001367B
:1003A00002363B2EEAD712003950D8B4A5D0456E9C
:1003B0003D50D8B4A1D0455E05E37F0E4526D8B0A8
:1003C0009BD006D0810E455ED8A096D0D8B494D0EC
:1003D00045C000F0016A026A036A446A3AC043F009
:1003E000438E3BC042F03CC041F0190E456E405078
:1003F000415E0DE2010E425E0AE2435E08E2445EA7
:1004000006E2442A432A422A4050412628D03F503F
:10041000425E12E2010E435E0FE2445E0DE2442AA8
:10042000432A3F5042264050412619E3422A17E111
:10043000432A15E1442A13D03E508009435E0EE260
:10044000010E445E0BE2442A3E50800943263F5091
:100450004226E9E3432AE7E1442AE5D70380452E13
:1004600001D00BD0D8904136423643364436D8902E
:100470000336023601364636BAD746A006D0D890A3
:10048000013202320332463202D0000635E046BE67
:100490001ED0D89041364236433644364050415EF5
:1004A00007E2010E425E04E2435E02E2445E1AE3AA
:1004B0003F50425E05E2010E435E02E2445E12E3FB
:1004C0003E508009435E03E2010E445E0BE3032AC3
:1004D00009E1022A07E1012A05E1002A0DE00132C3
:1004E000023203323AC045F03E50451A45AE02D0C2
:1004F000018E06D0019E04D0006A016A026A036A76
:100500001200800ED8B23E1A436A446A3AC042F0E2
:100510003E50421A3950D8B4DCD0416E006E3D5086
:10052000D8B4E0D0415ED8B481D03DE33EC047F0BE
:10053000478E3FC046F040C045F0446AD8904732ED
:10054000463245324432412EF8D742AE03D0438082
:10055000DDD0439041904388EA6A3C0EE96EE9D0D1
:10056000439842BE0AD041A013D0473246324532AA
:100570004432002AD8B4C5D00BD047BE0CD0D89096
:1005800044364536463647360006D8B4BAD0F5D795
:10059000438C6BD0439C3AC042F03AAE02D0478EB7
:1005A000A9D0479EA7D03DC041F03DC000F03950D2
:1005B000415E3AC047F0478E3BC046F03CC045F034
:1005C000446AD8904732463245324432412EF8D7F9
:1005D00042AE03D043829AD043924190438AEA6A62
:1005E000400EE96EA6D0439A42BE0AD041A013D075
:1005F0004732463245324432002AD8B482D00BD03A
:1006000047BE0CD0D89044364536463647360006AD
:10061000D8B477D0F5D7438E28D0439E3EC042F061
:100620003EAE02D0478E66D0479E64D03EC047F0B3
:10063000478E3FC046F040C045F042AE04D0479ED2
:10064000438464D04394446A4190EA6A3C0EE96E64
:1006500070D042BE1CD03AC042F041A006D0473212
:10066000463245324432002A4CE044AE0BD0452A93
:1006700009E1462A07E1472A05E147324632453279
:10068000002A3FE043BC86D743BEC7D71CD0800EAC
:10069000471A47AE04D03AD03EC042F00AD03AC022
:1006A00042F0475206E1465204E1455202E1006A37
:1006B00021D047BE08D0D890443645364636473616
:1006C000002EF7D71ED042AE02D0478E13D0479EE1
:1006D00011D03DC000F03EC047F03FC046F040C0E2
:1006E00045F008D039C000F03AC047F03BC046F0B2
:1006F0003CC045F047C001F046C002F045C003F0E1
:1007000034D0006A016A026A036A2FD0446A451E27
:10071000461E471E441E442A05E1452A03E1462A97
:1007200001E1472A43B015D743B256D743B48AD71D
:10073000B3D7EF50452605E3462A03E1472AD8B44C
:100740004180ED52EF50462603E3472AD8B441805A
:10075000ED52EF50EFBE01D0800A4726D8B041805D
:1007600043B8FED643BA3FD774D7120036C03DF027
:100770003A503D1A3DAE05D0D894D89036BED880B8
:100780002FD036C03DF039C03EF035503E5E06E019
:100790003DAE26D0D850010AD86E22D03AC03EF0E5
:1007A00036503E5E06E03DAE1BD0D850010AD86EF2
:1007B00017D03BC03EF037503E5E06E03DAE10D055
:1007C000D850010AD86E0CD03CC03EF038503E5E86
:1007D00006E03DAE05D0D850010AD86E01D0D890C1
:1007E00012005D2C01D003D0400E5E6E01D05E6A17
:1007F000010E5C5C5E265E5080095F6E606B616F0F
:10080000A7DC12005B50070A07E00B0A0AE0060AA1
:1008100010E0020A14E018D0010E5C6E5D6EE1DF9C
:1008200018D0606B010E616F93DC020E5C6E0FDC02
:1008300010D0010E5C6E020E5D6ED3DF0AD0606BCD
:10084000100E616F85DC05D0010E606F5BC061F03A
:100850007FDC12000900F5520CE0F6CF4EF0F7CF26
:100860004FF0F5CF5BF0CEDF4EC0F6FF4FC0F7FF85
:10087000F1D78CEF05F0EF520FE0EACF4FF0E9CF60
:100880004EF0EFCF5BF0BEDF4FC0EAFF4EC0E9FF96
:10089000E92AD8B4EA2AEFD795EF05F00900F6CF98
:1008A0004FF0F7CF50F0F5CF5BF0ACDF4FC0F6FF65
:1008B00050C0F7FF4E2EF2D712005B50B6085B6EA9
:1008C000036A5CC05FF05C8ED8905C325D325E3251
:1008D00003320232013200325B2EF6D75FAE0BD00C
:1008E000001E011E021E031E002AD8B4012AD8B41D
:1008F000022AD8B4032AEBEF04F0D8B203D0EA6A94
:10090000630EE96E006A016A026A036A636B646BD4
:10091000656B666B6251611160115F102CE0200EF7
:10092000676FD8905B365C365D365E36633764370A
:10093000653766376251665D08E16151655D05E1C5
:100940006051645D02E15F50635D0FE35F50635F80
:100950006051D8A0603D645F6151D8A0613D655F82
:100960006251D8A0623D665FD880003601360236FB
:100970000336672FD6D763C0EFFF64C0ECFF65C0B6
:10098000ECFF66C0ECFF1200E950536E5250556EFA
:1009900019E051C05EF050C05DF04FC05CF04EC039
:1009A0005BF0626B616B200E606F820E5F6E45DCE8
:1009B00003C051F002C050F001C04FF000C04EF033
:1009C000552EE7D751C05EF050C05DF04FC05CF0CF
:1009D0004EC05BF072D703C051F002C050F001C0AE
:1009E0004FF000C04EF051AE0DD05306538A4E1E4C
:1009F0004F1E501E511E4E2AD8B44F2AD8B4502A2A
:100A0000D8B4512A3B0E5A6E9A0E596ECA0E586EC1
:100A1000576A0A0E556E5250D8B4532AD882EA6AE1
:100A20004E0EE96E51C05EF050C05DF04FC05CF0FC
:100A30004EC05BF05AC062F059C061F058C060F01F
:100A400057C05FF05ADF015000520FE15228555C49
:100A50000CE053500CE00F0B555C01E037E253BE45
:100A600035D053BC04D0200E2DD0200E531653AADF
:100A70000CD0539A5250D8A453060050536E2D0EEA
:100A80005B6EC0DE5350006E536A5250555C0AE1F3
:100A90000050536E2E0E5B6EB5DE5350006E200E6E
:100AA0005316000E300E53AA0DD0539A5250D8A4AC
:100AB00053060050536E2D0E5B6EA4DE5350006E35
:100AC000536A300E002600C05BF09CDED8925AC0FC
:100AD0005EF059C05DF058C05CF057C05BF0626BCF
:100AE000616B606B0A0E5F6E08DF03C05AF002C0D4
:100AF00059F001C058F000C057F0552E8FD71200A2
:100B00000C0E5B6E7FDE010E5C6E5D6E6ADE180E93
:100B1000F66E000EF76E9ED6070E5C6E010E5D6ED1
:100B200060DEEA6A35C0E9FFA6D6640E5C6E27EC8B
:100B300000F0010E5C6E020E5D6E53DE1E0EF66E50
:100B4000000EF76E030E4E6EA9DE890EE96E39C0F7
:100B500051F038C050F037C04FF036C04EF0010EA3
:100B6000526E12DF560E5B6E4DDE200E5B6E4ADE5D
:100B7000890EE96E45C051F044C050F043C04FF0BB
:100B800042C04EF0010E526EFFDE410E5B6E3ADE49
:100B9000640E5C6E27EC00F0110E5C6E010E5D6E53
:100BA00020DE2E0EF66E000EF76E030E4E6E76DE13
:100BB000890EE96E3DC051F03CC050F03BC04FF093
:100BC0003AC04EF0010E526EDFDE560E5B6E1ADE3C
:100BD000200E5B6E17DE890EE96E49C051F048C0E9
:100BE00050F047C04FF046C04EF0010E526ECCDEC2
:100BF000410E5B6E07DE640E5C6E27EC00F0110E9A
:100C00005C6E020E5D6EEDDD3E0EF66E000EF76E52
:100C1000030E4E6E43DE890EE96E41C051F040C0B6
:100C200050F03FC04FF03EC04EF0010E526EACDEB1
:100C3000560E5B6EE7DD200E5B6EE4DD890EE96E1D
:100C40004DC051F04CC050F04BC04FF04AC04EF078
:100C5000010E526E99DE410E5B6ED4DD640E5C6E49
:100C600027EC00F078EF0AF0F86AD09E700ED36E91
:100C7000D35093829380130EC86E280EC66EC78E13
:100C8000C79CC150C00B0F09C16E070EB46E0B6A32
:100C90000C6A200E0D6E300E0E6E0F6E2E0E106E44
:100CA000300E116E200E126E430E136E146AC05079
:100CB000C00B0709C06EC08EC280C150C00B0809AE
:100CC000C16ECBEF00F0000E016EC250C30B0110DD
:100CD000C26E0C0E006E002EFED700D00000C28245
:100CE000C2B2FED7C4CF03F0C3CF35F0C4CF36F0C5
:100CF000C4CF38F0C3CF37F002EC01F003C05EF090
:100D000002C05DF001C05CF000C05BF0350E626FA8
:100D10005E0E616F7A0E606F7D0E5F6E1DEC01F0EE
:100D200003C038F002C037F001C036F000C035F023
:100D300096EF01F002C016F001C015F0165203E163
:100D40001550630803E2310E0D6E02D0200E0D6EB9
:100D500016C038F015C037F03A6A0A0E396EB3EC97
:100D600001F002C036F001C035F002C038F001C019
:100D700037F03A6A0A0E396EB3EC01F0300E0024F7
:100D80000E6E16C038F015C037F03A6A0A0E396E8A
:100D9000B3EC01F0300E00240F6EDF0E126E040E65
:100DA000016EC250C30B0110C26EC282C2B2FED726
:100DB000C3CF33F0C4CF34F034C038F033C037F091
:100DC00002EC01F003C01AF002C019F001C018F0E3
:100DD00000C017F01AC05EF019C05DF018C05CF0DA
:100DE00017C05BF0626B616B200E606F810E5F6EEF
:100DF0001DEC01F003C038F002C037F001C036F03E
:100E000000C035F003C05EF002C05DF001C05CF0D0
:100E100000C05BF0626B616B700E606F840E5F6E82
:100E20001DEC01F003C038F002C037F001C036F00D
:100E300000C035F003C03CF002C03BF001C03AF006
:100E400000C039F0406AC00E3F6E7F0E3E6E880EC5
:100E50003D6ED4EC01F003C038F002C037F001C0A1
:100E600036F000C035F0D89203C03CF002C03BF031
:100E700001C03AF000C039F0406A3F6A3E6A7F0E16
:100E80003D6E81EC02F003C01EF002C01DF001C0F7
:100E90001CF000C01BF0080E016EC250C30B011005
:100EA000C26EC282C2B2FED7C3CF33F0C4CF34F019
:100EB00034C038F033C037F002EC01F003C01AF050
:100EC00002C019F001C018F000C017F01AC05EF09F
:100ED00019C05DF018C05CF017C05BF0626B616B0D
:100EE000200E606F810E5F6E1DEC01F003C038F0C4
:100EF00002C037F001C036F000C035F003C05EF02C
:100F000002C05DF001C05CF000C05BF0626B616B21
:100F1000700E606F840E5F6E1DEC01F003C038F040
:100F200002C037F001C036F000C035F003C03CF01D
:100F300002C03BF001C03AF000C039F0406AC00E78
:100F40003F6E7F0E3E6E880E3D6ED4EC01F003C006
:100F500038F002C037F001C036F000C035F0D8924A
:100F600003C03CF002C03BF001C03AF000C039F0D1
:100F7000406A3F6A3E6A7F0E3D6E81EC02F003C01C
:100F800022F002C021F001C020F000C01FF00C0EC2
:100F9000016EC250C30B0110C26EC282C2B2FED734
:100FA000C3CF33F0C4CF34F034C038F033C037F09F
:100FB00002EC01F003C01AF002C019F001C018F0F1
:100FC00000C017F01AC05EF019C05DF018C05CF0E8
:100FD00017C05BF0626B616B200E606F810E5F6EFD
:100FE0001DEC01F003C038F002C037F001C036F04C
:100FF00000C035F003C05EF002C05DF001C05CF0DF
:1010000000C05BF0626B616B700E606F840E5F6E90
:101010001DEC01F003C038F002C037F001C036F01B
:1010200000C035F003C03CF002C03BF001C03AF014
:1010300000C039F0406AC00E3F6E7F0E3E6E880ED3
:101040003D6ED4EC01F003C038F002C037F001C0AF
:1010500036F000C035F0D89203C03CF002C03BF03F
:1010600001C03AF000C039F0406A3F6A3E6A7F0E24
:101070003D6E81EC02F003C026F002C025F001C0F5
:1010800024F000C023F0100E016EC250C30B0110FB
:10109000C26EC282C2B2FED7C3CF33F0C4CF34F027
:1010A00034C038F033C037F002EC01F003C01AF05E
:1010B00002C019F001C018F000C017F01AC05EF0AD
:1010C00019C05DF018C05CF017C05BF0626B616B1B
:1010D000200E606F810E5F6E1DEC01F003C038F0D2
:1010E00002C037F001C036F000C035F003C03CF05C
:1010F00002C03BF001C03AF000C039F0406AC00EB7
:101100003F6E7F0E3E6E880E3D6ED4EC01F003C044
:1011100038F002C037F001C036F000C035F0D88298
:1011200003C03CF002C03BF001C03AF000C039F00F
:10113000406A3F6A200E3E6E800E3D6E81EC02F0EA
:1011400003C038F002C037F001C036F000C035F0FF
:1011500003C03CF002C03BF001C03AF000C039F0DF
:10116000A40E406E700E3F6E3D0E3E6E7C0E3D6EC8
:10117000D4EC01F003C02AF002C029F001C028F02D
:1011800000C027F0386A376A366A7F0E356E2AC08B
:101190003CF029C03BF028C03AF027C039F0B6EC4B
:1011A00003F001E21BE1D8822AC03CF029C03BF0E9
:1011B00028C03AF027C039F0CD0E406ECC0E3F6EFD
:1011C0004C0E3E6E7B0E3D6E81EC02F003C02AF0A9
:1011D00002C029F001C028F000C027F0140E016EF3
:1011E000C250C30B0110C26EC282C2B2FED7C3CFBF
:1011F00033F0C4CF34F034C038F033C037F002ECF1
:1012000001F003C01AF002C019F001C018F000C0CC
:1012100017F01AC05EF019C05DF018C05CF017C07E
:101220005BF0626B616B200E606F810E5F6E1DEC78
:1012300001F003C038F002C037F001C036F000C042
:1012400035F003C03CF002C03BF001C03AF000C0F2
:1012500039F0406AC00E3F6E7F0E3E6E880E3D6EC6
:10126000D4EC01F003C038F002C037F001C036F012
:1012700000C035F0D88203C03CF002C03BF001C092
:101280003AF000C039F0406A3F6A200E3E6E800E90
:101290003D6E81EC02F003C038F002C037F001C0AF
:1012A00036F000C035F003C03CF002C03BF001C096
:1012B0003AF000C039F0A40E406E700E3F6E3D0E45
:1012C0003E6E7C0E3D6ED4EC01F003C02EF002C0E9
:1012D0002DF001C02CF000C02BF0386A376A366A56
:1012E0007F0E356E2EC03CF02DC03BF02CC03AF086
:1012F0002BC039F0B6EC03F001E21BE1D8822EC01E
:101300003CF02DC03BF02CC03AF02BC039F0CD0E94
:10131000406ECC0E3F6E4C0E3E6E7B0E3D6E81ECF1
:1013200002F003C02EF002C02DF001C02CF000C06E
:101330002BF0180E016EC250C30B0110C26EC28298
:10134000C2B2FED7C3CF33F0C4CF34F034C038F0CC
:1013500033C037F002EC01F003C01AF002C019F0FC
:1013600001C018F000C017F01AC05EF019C05DF09F
:1013700018C05CF017C05BF0626B616B200E606F91
:10138000810E5F6E1DEC01F003C038F002C037F033
:1013900001C036F000C035F003C03CF002C03BF0A5
:1013A00001C03AF000C039F0406AC00E3F6E7F0EB7
:1013B0003E6E880E3D6ED4EC01F003C038F002C0E2
:1013C00037F001C036F000C035F0D88203C03CF0E1
:1013D00002C03BF001C03AF000C039F0406A3F6AF9
:1013E000200E3E6E800E3D6E81EC02F003C038F0A0
:1013F00002C037F001C036F000C035F003C03CF049
:1014000002C03BF001C03AF000C039F0A40E406EBB
:10141000700E3F6E3D0E3E6E7C0E3D6ED4EC01F0C4
:1014200003C032F002C031F001C030F000C02FF034
:10143000386A376A366A7F0E356E32C03CF031C08A
:101440003BF030C03AF02FC039F0B6EC03F001E2C7
:101450001BE1D88232C03CF031C03BF030C03AF0E2
:101460002FC039F0CD0E406ECC0E3F6E4C0E3E6E4E
:101470007B0E3D6E81EC02F003C032F002C031F011
:1014800001C030F000C02FF00D0E356E1EC039F0D7
:101490001DC038F01CC037F01BC036F022C03DF034
:1014A00021C03CF020C03BF01FC03AF026C041F004
:1014B00025C040F024C03FF023C03EF02AC045F0D4
:1014C00029C044F028C043F027C042F02EC049F0A4
:1014D0002DC048F02CC047F02BC046F032C04DF074
:1014E00031C04CF030C04BF02FC04AF080EF05F017
:1014F000C80E5C6E27EC00F063EF06F0000E016E84
:021500000300E6
:020000040030CA
:0E0000003FC93E1E0087A1000FC00FE00F4059
:00000001FF
;PIC18F4550
;CRC=E8FD  CREATED="15-fev-20 10:37"
